{
  "_format": "hh-sol-artifact-1",
  "contractName": "Web3Mint",
  "sourceName": "contracts/Web3Mint.sol",
  "abi": [
    {
      "inputs": [],
      "stateMutability": "nonpayable",
      "type": "constructor"
    },
    {
      "anonymous": false,
      "inputs": [
        {
          "indexed": true,
          "internalType": "address",
          "name": "owner",
          "type": "address"
        },
        {
          "indexed": true,
          "internalType": "address",
          "name": "approved",
          "type": "address"
        },
        {
          "indexed": true,
          "internalType": "uint256",
          "name": "tokenId",
          "type": "uint256"
        }
      ],
      "name": "Approval",
      "type": "event"
    },
    {
      "anonymous": false,
      "inputs": [
        {
          "indexed": true,
          "internalType": "address",
          "name": "owner",
          "type": "address"
        },
        {
          "indexed": true,
          "internalType": "address",
          "name": "operator",
          "type": "address"
        },
        {
          "indexed": false,
          "internalType": "bool",
          "name": "approved",
          "type": "bool"
        }
      ],
      "name": "ApprovalForAll",
      "type": "event"
    },
    {
      "anonymous": false,
      "inputs": [
        {
          "indexed": true,
          "internalType": "address",
          "name": "from",
          "type": "address"
        },
        {
          "indexed": true,
          "internalType": "address",
          "name": "to",
          "type": "address"
        },
        {
          "indexed": true,
          "internalType": "uint256",
          "name": "tokenId",
          "type": "uint256"
        }
      ],
      "name": "Transfer",
      "type": "event"
    },
    {
      "inputs": [
        {
          "internalType": "uint256",
          "name": "_tokenId",
          "type": "uint256"
        }
      ],
      "name": "addLike",
      "outputs": [
        {
          "internalType": "string",
          "name": "",
          "type": "string"
        }
      ],
      "stateMutability": "nonpayable",
      "type": "function"
    },
    {
      "inputs": [
        {
          "internalType": "address",
          "name": "to",
          "type": "address"
        },
        {
          "internalType": "uint256",
          "name": "tokenId",
          "type": "uint256"
        }
      ],
      "name": "approve",
      "outputs": [],
      "stateMutability": "nonpayable",
      "type": "function"
    },
    {
      "inputs": [
        {
          "internalType": "address",
          "name": "owner",
          "type": "address"
        }
      ],
      "name": "balanceOf",
      "outputs": [
        {
          "internalType": "uint256",
          "name": "",
          "type": "uint256"
        }
      ],
      "stateMutability": "view",
      "type": "function"
    },
    {
      "inputs": [
        {
          "internalType": "uint256",
          "name": "tokenId",
          "type": "uint256"
        }
      ],
      "name": "getApproved",
      "outputs": [
        {
          "internalType": "address",
          "name": "",
          "type": "address"
        }
      ],
      "stateMutability": "view",
      "type": "function"
    },
    {
      "inputs": [
        {
          "internalType": "address",
          "name": "owner",
          "type": "address"
        },
        {
          "internalType": "address",
          "name": "operator",
          "type": "address"
        }
      ],
      "name": "isApprovedForAll",
      "outputs": [
        {
          "internalType": "bool",
          "name": "",
          "type": "bool"
        }
      ],
      "stateMutability": "view",
      "type": "function"
    },
    {
      "inputs": [],
      "name": "list",
      "outputs": [
        {
          "internalType": "string",
          "name": "",
          "type": "string"
        }
      ],
      "stateMutability": "view",
      "type": "function"
    },
    {
      "inputs": [
        {
          "internalType": "string",
          "name": "name",
          "type": "string"
        },
        {
          "internalType": "string",
          "name": "imageURI",
          "type": "string"
        }
      ],
      "name": "mintIpfsNFT",
      "outputs": [],
      "stateMutability": "nonpayable",
      "type": "function"
    },
    {
      "inputs": [],
      "name": "name",
      "outputs": [
        {
          "internalType": "string",
          "name": "",
          "type": "string"
        }
      ],
      "stateMutability": "view",
      "type": "function"
    },
    {
      "inputs": [
        {
          "internalType": "uint256",
          "name": "tokenId",
          "type": "uint256"
        }
      ],
      "name": "ownerOf",
      "outputs": [
        {
          "internalType": "address",
          "name": "",
          "type": "address"
        }
      ],
      "stateMutability": "view",
      "type": "function"
    },
    {
      "inputs": [
        {
          "internalType": "address",
          "name": "from",
          "type": "address"
        },
        {
          "internalType": "address",
          "name": "to",
          "type": "address"
        },
        {
          "internalType": "uint256",
          "name": "tokenId",
          "type": "uint256"
        }
      ],
      "name": "safeTransferFrom",
      "outputs": [],
      "stateMutability": "nonpayable",
      "type": "function"
    },
    {
      "inputs": [
        {
          "internalType": "address",
          "name": "from",
          "type": "address"
        },
        {
          "internalType": "address",
          "name": "to",
          "type": "address"
        },
        {
          "internalType": "uint256",
          "name": "tokenId",
          "type": "uint256"
        },
        {
          "internalType": "bytes",
          "name": "_data",
          "type": "bytes"
        }
      ],
      "name": "safeTransferFrom",
      "outputs": [],
      "stateMutability": "nonpayable",
      "type": "function"
    },
    {
      "inputs": [
        {
          "internalType": "address",
          "name": "operator",
          "type": "address"
        },
        {
          "internalType": "bool",
          "name": "approved",
          "type": "bool"
        }
      ],
      "name": "setApprovalForAll",
      "outputs": [],
      "stateMutability": "nonpayable",
      "type": "function"
    },
    {
      "inputs": [
        {
          "internalType": "bytes4",
          "name": "interfaceId",
          "type": "bytes4"
        }
      ],
      "name": "supportsInterface",
      "outputs": [
        {
          "internalType": "bool",
          "name": "",
          "type": "bool"
        }
      ],
      "stateMutability": "view",
      "type": "function"
    },
    {
      "inputs": [],
      "name": "symbol",
      "outputs": [
        {
          "internalType": "string",
          "name": "",
          "type": "string"
        }
      ],
      "stateMutability": "view",
      "type": "function"
    },
    {
      "inputs": [
        {
          "internalType": "uint256",
          "name": "_tokenId",
          "type": "uint256"
        }
      ],
      "name": "tokenURI",
      "outputs": [
        {
          "internalType": "string",
          "name": "",
          "type": "string"
        }
      ],
      "stateMutability": "view",
      "type": "function"
    },
    {
      "inputs": [
        {
          "internalType": "address",
          "name": "from",
          "type": "address"
        },
        {
          "internalType": "address",
          "name": "to",
          "type": "address"
        },
        {
          "internalType": "uint256",
          "name": "tokenId",
          "type": "uint256"
        }
      ],
      "name": "transferFrom",
      "outputs": [],
      "stateMutability": "nonpayable",
      "type": "function"
    }
  ],
  "bytecode": "0x60806040523480156200001157600080fd5b506040518060400160405280600781526020017f50494143455245000000000000000000000000000000000000000000000000008152506040518060400160405280600781526020017f706961636572650000000000000000000000000000000000000000000000000081525081600090816200008f91906200043b565b508060019081620000a191906200043b565b505050620000ef6040518060400160405280601881526020017f54686973206973206d79204e465420636f6e74726163742e0000000000000000815250620000f560201b62000eeb1760201c565b620005d5565b62000195816040516024016200010c9190620005b1565b6040516020818303038152906040527f41304fac000000000000000000000000000000000000000000000000000000007bffffffffffffffffffffffffffffffffffffffffffffffffffffffff19166020820180517bffffffffffffffffffffffffffffffffffffffffffffffffffffffff83818316178352505050506200019860201b60201c565b50565b60008151905060006a636f6e736f6c652e6c6f679050602083016000808483855afa5050505050565b600081519050919050565b7f4e487b7100000000000000000000000000000000000000000000000000000000600052604160045260246000fd5b7f4e487b7100000000000000000000000000000000000000000000000000000000600052602260045260246000fd5b600060028204905060018216806200024357607f821691505b602082108103620002595762000258620001fb565b5b50919050565b60008190508160005260206000209050919050565b60006020601f8301049050919050565b600082821b905092915050565b600060088302620002c37fffffffffffffffffffffffffffffffffffffffffffffffffffffffffffffffff8262000284565b620002cf868362000284565b95508019841693508086168417925050509392505050565b6000819050919050565b6000819050919050565b60006200031c620003166200031084620002e7565b620002f1565b620002e7565b9050919050565b6000819050919050565b6200033883620002fb565b62000350620003478262000323565b84845462000291565b825550505050565b600090565b6200036762000358565b620003748184846200032d565b505050565b5b818110156200039c57620003906000826200035d565b6001810190506200037a565b5050565b601f821115620003eb57620003b5816200025f565b620003c08462000274565b81016020851015620003d0578190505b620003e8620003df8562000274565b83018262000379565b50505b505050565b600082821c905092915050565b60006200041060001984600802620003f0565b1980831691505092915050565b60006200042b8383620003fd565b9150826002028217905092915050565b6200044682620001c1565b67ffffffffffffffff811115620004625762000461620001cc565b5b6200046e82546200022a565b6200047b828285620003a0565b600060209050601f831160018114620004b357600084156200049e578287015190505b620004aa85826200041d565b8655506200051a565b601f198416620004c3866200025f565b60005b82811015620004ed57848901518255600182019150602085019450602081019050620004c6565b868310156200050d578489015162000509601f891682620003fd565b8355505b6001600288020188555050505b505050505050565b600082825260208201905092915050565b60005b838110156200055357808201518184015260208101905062000536565b60008484015250505050565b6000601f19601f8301169050919050565b60006200057d82620001c1565b62000589818562000522565b93506200059b81856020860162000533565b620005a6816200055f565b840191505092915050565b60006020820190508181036000830152620005cd818462000570565b905092915050565b61393580620005e56000396000f3fe608060405234801561001057600080fd5b50600436106101005760003560e01c80636352211e11610097578063b88d4fde11610066578063b88d4fde146102bf578063c87b56dd146102db578063e985e9c51461030b578063eb00195d1461033b57610100565b80636352211e1461022557806370a082311461025557806395d89b4114610285578063a22cb465146102a357610100565b80630f560cd7116100d35780630f560cd71461019f57806323b872dd146101bd578063378a35cd146101d957806342842e0e1461020957610100565b806301ffc9a71461010557806306fdde0314610135578063081812fc14610153578063095ea7b314610183575b600080fd5b61011f600480360381019061011a9190611eec565b610357565b60405161012c9190611f34565b60405180910390f35b61013d610439565b60405161014a9190611fdf565b60405180910390f35b61016d60048036038101906101689190612037565b6104cb565b60405161017a91906120a5565b60405180910390f35b61019d600480360381019061019891906120ec565b610550565b005b6101a7610667565b6040516101b49190611fdf565b60405180910390f35b6101d760048036038101906101d2919061212c565b610835565b005b6101f360048036038101906101ee9190612037565b610895565b6040516102009190611fdf565b60405180910390f35b610223600480360381019061021e919061212c565b610a20565b005b61023f600480360381019061023a9190612037565b610a40565b60405161024c91906120a5565b60405180910390f35b61026f600480360381019061026a919061217f565b610af1565b60405161027c91906121bb565b60405180910390f35b61028d610ba8565b60405161029a9190611fdf565b60405180910390f35b6102bd60048036038101906102b89190612202565b610c3a565b005b6102d960048036038101906102d49190612377565b610c50565b005b6102f560048036038101906102f09190612037565b610cb2565b6040516103029190611fdf565b60405180910390f35b610325600480360381019061032091906123fa565b610d3d565b6040516103329190611f34565b60405180910390f35b610355600480360381019061035091906124db565b610dd1565b005b60007f80ac58cd000000000000000000000000000000000000000000000000000000007bffffffffffffffffffffffffffffffffffffffffffffffffffffffff1916827bffffffffffffffffffffffffffffffffffffffffffffffffffffffff1916148061042257507f5b5e139f000000000000000000000000000000000000000000000000000000007bffffffffffffffffffffffffffffffffffffffffffffffffffffffff1916827bffffffffffffffffffffffffffffffffffffffffffffffffffffffff1916145b80610432575061043182610f84565b5b9050919050565b60606000805461044890612582565b80601f016020809104026020016040519081016040528092919081815260200182805461047490612582565b80156104c15780601f10610496576101008083540402835291602001916104c1565b820191906000526020600020905b8154815290600101906020018083116104a457829003601f168201915b5050505050905090565b60006104d682610fee565b610515576040517f08c379a000000000000000000000000000000000000000000000000000000000815260040161050c90612625565b60405180910390fd5b6004600083815260200190815260200160002060009054906101000a900473ffffffffffffffffffffffffffffffffffffffff169050919050565b600061055b82610a40565b90508073ffffffffffffffffffffffffffffffffffffffff168373ffffffffffffffffffffffffffffffffffffffff16036105cb576040517f08c379a00000000000000000000000000000000000000000000000000000000081526004016105c2906126b7565b60405180910390fd5b8073ffffffffffffffffffffffffffffffffffffffff166105ea61105a565b73ffffffffffffffffffffffffffffffffffffffff16148061061957506106188161061361105a565b610d3d565b5b610658576040517f08c379a000000000000000000000000000000000000000000000000000000000815260040161064f90612749565b60405180910390fd5b6106628383611062565b505050565b606060006040518060400160405280600e81526020017f7b22617474726962757465223a5b000000000000000000000000000000000000815250905060005b6006805490508110156107fd576000600682815481106106c9576106c8612769565b5b90600052602060002090600402016000016106e38361111b565b600684815481106106f7576106f6612769565b5b90600052602060002090600402016001016107118561111b565b61073f6006878154811061072857610727612769565b5b90600052602060002090600402016002015461111b565b6006878154811061075357610752612769565b5b906000526020600020906004020160030160405160200161077996959493929190612aa6565b6040516020818303038152906040529050600160068054905061079c9190612b7a565b82146107c557806040516020016107b39190612bfa565b60405160208183030381529060405290505b82816040516020016107d8929190612c1c565b60405160208183030381529060405292505080806107f590612c40565b9150506106a6565b508060405160200161080f9190612cd4565b6040516020818303038152906040529050600061082b8261127b565b9050809250505090565b61084661084061105a565b82611412565b610885576040517f08c379a000000000000000000000000000000000000000000000000000000000815260040161087c90612d68565b60405180910390fd5b6108908383836114f0565b505050565b60606000600683815481106108ad576108ac612769565b5b90600052602060002090600402016002015490506109086040518060400160405280600881526020017f6c696b6573203a200000000000000000000000000000000000000000000000008152506109038361111b565b61174b565b6001816109159190612d88565b6006848154811061092957610928612769565b5b90600052602060002090600402016002018190555061098d6040518060600160405280602281526020016138de602291396109886006868154811061097157610970612769565b5b90600052602060002090600402016002015461111b565b61174b565b6000610a14600685815481106109a6576109a5612769565b5b90600052602060002090600402016000016109c08661111b565b6109ee600688815481106109d7576109d6612769565b5b90600052602060002090600402016002015461111b565b604051602001610a0093929190612e08565b60405160208183030381529060405261127b565b90508092505050919050565b610a3b83838360405180602001604052806000815250610c50565b505050565b6000806002600084815260200190815260200160002060009054906101000a900473ffffffffffffffffffffffffffffffffffffffff169050600073ffffffffffffffffffffffffffffffffffffffff168173ffffffffffffffffffffffffffffffffffffffff1603610ae8576040517f08c379a0000000000000000000000000000000000000000000000000000000008152600401610adf90612ed7565b60405180910390fd5b80915050919050565b60008073ffffffffffffffffffffffffffffffffffffffff168273ffffffffffffffffffffffffffffffffffffffff1603610b61576040517f08c379a0000000000000000000000000000000000000000000000000000000008152600401610b5890612f69565b60405180910390fd5b600360008373ffffffffffffffffffffffffffffffffffffffff1673ffffffffffffffffffffffffffffffffffffffff168152602001908152602001600020549050919050565b606060018054610bb790612582565b80601f0160208091040260200160405190810160405280929190818152602001828054610be390612582565b8015610c305780601f10610c0557610100808354040283529160200191610c30565b820191906000526020600020905b815481529060010190602001808311610c1357829003601f168201915b5050505050905090565b610c4c610c4561105a565b83836117e7565b5050565b610c61610c5b61105a565b83611412565b610ca0576040517f08c379a0000000000000000000000000000000000000000000000000000000008152600401610c9790612d68565b60405180910390fd5b610cac84848484611953565b50505050565b60606000610d3260068481548110610ccd57610ccc612769565b5b9060005260206000209060040201600001610ce78561111b565b60068681548110610cfb57610cfa612769565b5b9060005260206000209060040201600101604051602001610d1e93929190612ffb565b60405160208183030381529060405261127b565b905080915050919050565b6000600560008473ffffffffffffffffffffffffffffffffffffffff1673ffffffffffffffffffffffffffffffffffffffff16815260200190815260200160002060008373ffffffffffffffffffffffffffffffffffffffff1673ffffffffffffffffffffffffffffffffffffffff16815260200190815260200160002060009054906101000a900460ff16905092915050565b6000610ddd60076119af565b9050610de933826119bd565b60066040518060800160405280858152602001848152602001600081526020016040518060400160405280600c81526020017f7465737420636f6d6d656e74000000000000000000000000000000000000000081525081525090806001815401808255809150506001900390600052602060002090600402016000909190919091506000820151816000019081610e8091906131ef565b506020820151816001019081610e9691906131ef565b50604082015181600201556060820151816003019081610eb691906131ef565b505050610edc6040518060600160405280602581526020016138796025913982336119db565b610ee66007611a7a565b505050565b610f8181604051602401610eff9190611fdf565b6040516020818303038152906040527f41304fac000000000000000000000000000000000000000000000000000000007bffffffffffffffffffffffffffffffffffffffffffffffffffffffff19166020820180517bffffffffffffffffffffffffffffffffffffffffffffffffffffffff8381831617835250505050611a90565b50565b60007f01ffc9a7000000000000000000000000000000000000000000000000000000007bffffffffffffffffffffffffffffffffffffffffffffffffffffffff1916827bffffffffffffffffffffffffffffffffffffffffffffffffffffffff1916149050919050565b60008073ffffffffffffffffffffffffffffffffffffffff166002600084815260200190815260200160002060009054906101000a900473ffffffffffffffffffffffffffffffffffffffff1673ffffffffffffffffffffffffffffffffffffffff1614159050919050565b600033905090565b816004600083815260200190815260200160002060006101000a81548173ffffffffffffffffffffffffffffffffffffffff021916908373ffffffffffffffffffffffffffffffffffffffff160217905550808273ffffffffffffffffffffffffffffffffffffffff166110d583610a40565b73ffffffffffffffffffffffffffffffffffffffff167f8c5be1e5ebec7d5bd14f71427d1e84f3dd0314c0f7b2291e5b200ac8c7c3b92560405160405180910390a45050565b606060008203611162576040518060400160405280600181526020017f30000000000000000000000000000000000000000000000000000000000000008152509050611276565b600082905060005b6000821461119457808061117d90612c40565b915050600a8261118d91906132f0565b915061116a565b60008167ffffffffffffffff8111156111b0576111af61224c565b5b6040519080825280601f01601f1916602001820160405280156111e25781602001600182028036833780820191505090505b5090505b6000851461126f576001826111fb9190612b7a565b9150600a8561120a9190613321565b60306112169190612d88565b60f81b81838151811061122c5761122b612769565b5b60200101907effffffffffffffffffffffffffffffffffffffffffffffffffffffffffffff1916908160001a905350600a8561126891906132f0565b94506111e6565b8093505050505b919050565b6060600082519050600081036112a3576040518060200160405280600081525091505061140d565b600060036002836112b49190612d88565b6112be91906132f0565b60046112ca9190613352565b905060006020826112db9190612d88565b67ffffffffffffffff8111156112f4576112f361224c565b5b6040519080825280601f01601f1916602001820160405280156113265781602001600182028036833780820191505090505b509050600060405180606001604052806040815260200161389e604091399050600181016020830160005b868110156113ca5760038101905062ffffff818a015116603f8160121c168401518060081b905060ff603f83600c1c1686015116810190508060081b905060ff603f8360061c1686015116810190508060081b905060ff603f831686015116810190508060e01b90508084526004840193505050611351565b5060038606600181146113e457600281146113f4576113ff565b613d3d60f01b60028303526113ff565b603d60f81b60018303525b508484525050819450505050505b919050565b600061141d82610fee565b61145c576040517f08c379a000000000000000000000000000000000000000000000000000000000815260040161145390613406565b60405180910390fd5b600061146783610a40565b90508073ffffffffffffffffffffffffffffffffffffffff168473ffffffffffffffffffffffffffffffffffffffff1614806114d657508373ffffffffffffffffffffffffffffffffffffffff166114be846104cb565b73ffffffffffffffffffffffffffffffffffffffff16145b806114e757506114e68185610d3d565b5b91505092915050565b8273ffffffffffffffffffffffffffffffffffffffff1661151082610a40565b73ffffffffffffffffffffffffffffffffffffffff1614611566576040517f08c379a000000000000000000000000000000000000000000000000000000000815260040161155d90613498565b60405180910390fd5b600073ffffffffffffffffffffffffffffffffffffffff168273ffffffffffffffffffffffffffffffffffffffff16036115d5576040517f08c379a00000000000000000000000000000000000000000000000000000000081526004016115cc9061352a565b60405180910390fd5b6115e0838383611ab9565b6115eb600082611062565b6001600360008573ffffffffffffffffffffffffffffffffffffffff1673ffffffffffffffffffffffffffffffffffffffff168152602001908152602001600020600082825461163b9190612b7a565b925050819055506001600360008473ffffffffffffffffffffffffffffffffffffffff1673ffffffffffffffffffffffffffffffffffffffff16815260200190815260200160002060008282546116929190612d88565b92505081905550816002600083815260200190815260200160002060006101000a81548173ffffffffffffffffffffffffffffffffffffffff021916908373ffffffffffffffffffffffffffffffffffffffff160217905550808273ffffffffffffffffffffffffffffffffffffffff168473ffffffffffffffffffffffffffffffffffffffff167fddf252ad1be2c89b69c2b068fc378daa952ba7f163c4a11628f55a4df523b3ef60405160405180910390a4505050565b6117e3828260405160240161176192919061354a565b6040516020818303038152906040527f4b5c4277000000000000000000000000000000000000000000000000000000007bffffffffffffffffffffffffffffffffffffffffffffffffffffffff19166020820180517bffffffffffffffffffffffffffffffffffffffffffffffffffffffff8381831617835250505050611a90565b5050565b8173ffffffffffffffffffffffffffffffffffffffff168373ffffffffffffffffffffffffffffffffffffffff1603611855576040517f08c379a000000000000000000000000000000000000000000000000000000000815260040161184c906135cd565b60405180910390fd5b80600560008573ffffffffffffffffffffffffffffffffffffffff1673ffffffffffffffffffffffffffffffffffffffff16815260200190815260200160002060008473ffffffffffffffffffffffffffffffffffffffff1673ffffffffffffffffffffffffffffffffffffffff16815260200190815260200160002060006101000a81548160ff0219169083151502179055508173ffffffffffffffffffffffffffffffffffffffff168373ffffffffffffffffffffffffffffffffffffffff167f17307eab39ab6107e8899845ad3d59bd9653f200f220920489ca2b5937696c31836040516119469190611f34565b60405180910390a3505050565b61195e8484846114f0565b61196a84848484611abe565b6119a9576040517f08c379a00000000000000000000000000000000000000000000000000000000081526004016119a09061365f565b60405180910390fd5b50505050565b600081600001549050919050565b6119d7828260405180602001604052806000815250611c45565b5050565b611a758383836040516024016119f39392919061367f565b6040516020818303038152906040527f1c7ec448000000000000000000000000000000000000000000000000000000007bffffffffffffffffffffffffffffffffffffffffffffffffffffffff19166020820180517bffffffffffffffffffffffffffffffffffffffffffffffffffffffff8381831617835250505050611a90565b505050565b6001816000016000828254019250508190555050565b60008151905060006a636f6e736f6c652e6c6f679050602083016000808483855afa5050505050565b505050565b6000611adf8473ffffffffffffffffffffffffffffffffffffffff16611ca0565b15611c38578373ffffffffffffffffffffffffffffffffffffffff1663150b7a02611b0861105a565b8786866040518563ffffffff1660e01b8152600401611b2a9493929190613712565b6020604051808303816000875af1925050508015611b6657506040513d601f19601f82011682018060405250810190611b639190613773565b60015b611be8573d8060008114611b96576040519150601f19603f3d011682016040523d82523d6000602084013e611b9b565b606091505b506000815103611be0576040517f08c379a0000000000000000000000000000000000000000000000000000000008152600401611bd79061365f565b60405180910390fd5b805181602001fd5b63150b7a0260e01b7bffffffffffffffffffffffffffffffffffffffffffffffffffffffff1916817bffffffffffffffffffffffffffffffffffffffffffffffffffffffff191614915050611c3d565b600190505b949350505050565b611c4f8383611cb3565b611c5c6000848484611abe565b611c9b576040517f08c379a0000000000000000000000000000000000000000000000000000000008152600401611c929061365f565b60405180910390fd5b505050565b600080823b905060008111915050919050565b600073ffffffffffffffffffffffffffffffffffffffff168273ffffffffffffffffffffffffffffffffffffffff1603611d22576040517f08c379a0000000000000000000000000000000000000000000000000000000008152600401611d19906137ec565b60405180910390fd5b611d2b81610fee565b15611d6b576040517f08c379a0000000000000000000000000000000000000000000000000000000008152600401611d6290613858565b60405180910390fd5b611d7760008383611ab9565b6001600360008473ffffffffffffffffffffffffffffffffffffffff1673ffffffffffffffffffffffffffffffffffffffff1681526020019081526020016000206000828254611dc79190612d88565b92505081905550816002600083815260200190815260200160002060006101000a81548173ffffffffffffffffffffffffffffffffffffffff021916908373ffffffffffffffffffffffffffffffffffffffff160217905550808273ffffffffffffffffffffffffffffffffffffffff16600073ffffffffffffffffffffffffffffffffffffffff167fddf252ad1be2c89b69c2b068fc378daa952ba7f163c4a11628f55a4df523b3ef60405160405180910390a45050565b6000604051905090565b600080fd5b600080fd5b60007fffffffff0000000000000000000000000000000000000000000000000000000082169050919050565b611ec981611e94565b8114611ed457600080fd5b50565b600081359050611ee681611ec0565b92915050565b600060208284031215611f0257611f01611e8a565b5b6000611f1084828501611ed7565b91505092915050565b60008115159050919050565b611f2e81611f19565b82525050565b6000602082019050611f496000830184611f25565b92915050565b600081519050919050565b600082825260208201905092915050565b60005b83811015611f89578082015181840152602081019050611f6e565b60008484015250505050565b6000601f19601f8301169050919050565b6000611fb182611f4f565b611fbb8185611f5a565b9350611fcb818560208601611f6b565b611fd481611f95565b840191505092915050565b60006020820190508181036000830152611ff98184611fa6565b905092915050565b6000819050919050565b61201481612001565b811461201f57600080fd5b50565b6000813590506120318161200b565b92915050565b60006020828403121561204d5761204c611e8a565b5b600061205b84828501612022565b91505092915050565b600073ffffffffffffffffffffffffffffffffffffffff82169050919050565b600061208f82612064565b9050919050565b61209f81612084565b82525050565b60006020820190506120ba6000830184612096565b92915050565b6120c981612084565b81146120d457600080fd5b50565b6000813590506120e6816120c0565b92915050565b6000806040838503121561210357612102611e8a565b5b6000612111858286016120d7565b925050602061212285828601612022565b9150509250929050565b60008060006060848603121561214557612144611e8a565b5b6000612153868287016120d7565b9350506020612164868287016120d7565b925050604061217586828701612022565b9150509250925092565b60006020828403121561219557612194611e8a565b5b60006121a3848285016120d7565b91505092915050565b6121b581612001565b82525050565b60006020820190506121d060008301846121ac565b92915050565b6121df81611f19565b81146121ea57600080fd5b50565b6000813590506121fc816121d6565b92915050565b6000806040838503121561221957612218611e8a565b5b6000612227858286016120d7565b9250506020612238858286016121ed565b9150509250929050565b600080fd5b600080fd5b7f4e487b7100000000000000000000000000000000000000000000000000000000600052604160045260246000fd5b61228482611f95565b810181811067ffffffffffffffff821117156122a3576122a261224c565b5b80604052505050565b60006122b6611e80565b90506122c2828261227b565b919050565b600067ffffffffffffffff8211156122e2576122e161224c565b5b6122eb82611f95565b9050602081019050919050565b82818337600083830152505050565b600061231a612315846122c7565b6122ac565b90508281526020810184848401111561233657612335612247565b5b6123418482856122f8565b509392505050565b600082601f83011261235e5761235d612242565b5b813561236e848260208601612307565b91505092915050565b6000806000806080858703121561239157612390611e8a565b5b600061239f878288016120d7565b94505060206123b0878288016120d7565b93505060406123c187828801612022565b925050606085013567ffffffffffffffff8111156123e2576123e1611e8f565b5b6123ee87828801612349565b91505092959194509250565b6000806040838503121561241157612410611e8a565b5b600061241f858286016120d7565b9250506020612430858286016120d7565b9150509250929050565b600067ffffffffffffffff8211156124555761245461224c565b5b61245e82611f95565b9050602081019050919050565b600061247e6124798461243a565b6122ac565b90508281526020810184848401111561249a57612499612247565b5b6124a58482856122f8565b509392505050565b600082601f8301126124c2576124c1612242565b5b81356124d284826020860161246b565b91505092915050565b600080604083850312156124f2576124f1611e8a565b5b600083013567ffffffffffffffff8111156125105761250f611e8f565b5b61251c858286016124ad565b925050602083013567ffffffffffffffff81111561253d5761253c611e8f565b5b612549858286016124ad565b9150509250929050565b7f4e487b7100000000000000000000000000000000000000000000000000000000600052602260045260246000fd5b6000600282049050600182168061259a57607f821691505b6020821081036125ad576125ac612553565b5b50919050565b7f4552433732313a20617070726f76656420717565727920666f72206e6f6e657860008201527f697374656e7420746f6b656e0000000000000000000000000000000000000000602082015250565b600061260f602c83611f5a565b915061261a826125b3565b604082019050919050565b6000602082019050818103600083015261263e81612602565b9050919050565b7f4552433732313a20617070726f76616c20746f2063757272656e74206f776e6560008201527f7200000000000000000000000000000000000000000000000000000000000000602082015250565b60006126a1602183611f5a565b91506126ac82612645565b604082019050919050565b600060208201905081810360008301526126d081612694565b9050919050565b7f4552433732313a20617070726f76652063616c6c6572206973206e6f74206f7760008201527f6e6572206e6f7220617070726f76656420666f7220616c6c0000000000000000602082015250565b6000612733603883611f5a565b915061273e826126d7565b604082019050919050565b6000602082019050818103600083015261276281612726565b9050919050565b7f4e487b7100000000000000000000000000000000000000000000000000000000600052603260045260246000fd5b600081905092915050565b7f7b226e616d65223a202200000000000000000000000000000000000000000000600082015250565b60006127d9600a83612798565b91506127e4826127a3565b600a82019050919050565b60008190508160005260206000209050919050565b6000815461281181612582565b61281b8186612798565b94506001821660008114612836576001811461284b5761287e565b60ff198316865281151582028601935061287e565b612854856127ef565b60005b8381101561287657815481890152600182019150602081019050612857565b838801955050505b50505092915050565b7f202d2d204e465420233a20000000000000000000000000000000000000000000600082015250565b60006128bd600b83612798565b91506128c882612887565b600b82019050919050565b60006128de82611f4f565b6128e88185612798565b93506128f8818560208601611f6b565b80840191505092915050565b7f222c20226465736372697074696f6e223a2022416e2065706963204e4654222c60008201527f2022696d616765223a202268747470733a2f2f00000000000000000000000000602082015250565b6000612960603383612798565b915061296b82612904565b603382019050919050565b7f2e697066732e7733732e6c696e6b2f0000000000000000000000000000000000600082015250565b60006129ac600f83612798565b91506129b782612976565b600f82019050919050565b7f2e706e67222c20226c696b65223a202200000000000000000000000000000000600082015250565b60006129f8601083612798565b9150612a03826129c2565b601082019050919050565b7f222c2022636f6d6d656e74223a20220000000000000000000000000000000000600082015250565b6000612a44600f83612798565b9150612a4f82612a0e565b600f82019050919050565b7f227d000000000000000000000000000000000000000000000000000000000000600082015250565b6000612a90600283612798565b9150612a9b82612a5a565b600282019050919050565b6000612ab1826127cc565b9150612abd8289612804565b9150612ac8826128b0565b9150612ad482886128d3565b9150612adf82612953565b9150612aeb8287612804565b9150612af68261299f565b9150612b0282866128d3565b9150612b0d826129eb565b9150612b1982856128d3565b9150612b2482612a37565b9150612b308284612804565b9150612b3b82612a83565b9150819050979650505050505050565b7f4e487b7100000000000000000000000000000000000000000000000000000000600052601160045260246000fd5b6000612b8582612001565b9150612b9083612001565b9250828203905081811115612ba857612ba7612b4b565b5b92915050565b7f2c00000000000000000000000000000000000000000000000000000000000000600082015250565b6000612be4600183612798565b9150612bef82612bae565b600182019050919050565b6000612c0682846128d3565b9150612c1182612bd7565b915081905092915050565b6000612c2882856128d3565b9150612c3482846128d3565b91508190509392505050565b6000612c4b82612001565b91507fffffffffffffffffffffffffffffffffffffffffffffffffffffffffffffffff8203612c7d57612c7c612b4b565b5b600182019050919050565b7f5d7d000000000000000000000000000000000000000000000000000000000000600082015250565b6000612cbe600283612798565b9150612cc982612c88565b600282019050919050565b6000612ce082846128d3565b9150612ceb82612cb1565b915081905092915050565b7f4552433732313a207472616e736665722063616c6c6572206973206e6f74206f60008201527f776e6572206e6f7220617070726f766564000000000000000000000000000000602082015250565b6000612d52603183611f5a565b9150612d5d82612cf6565b604082019050919050565b60006020820190508181036000830152612d8181612d45565b9050919050565b6000612d9382612001565b9150612d9e83612001565b9250828201905080821115612db657612db5612b4b565b5b92915050565b7f222c20226c696b65223a20220000000000000000000000000000000000000000600082015250565b6000612df2600c83612798565b9150612dfd82612dbc565b600c82019050919050565b6000612e13826127cc565b9150612e1f8286612804565b9150612e2a826128b0565b9150612e3682856128d3565b9150612e4182612de5565b9150612e4d82846128d3565b9150612e5882612a83565b9150819050949350505050565b7f4552433732313a206f776e657220717565727920666f72206e6f6e657869737460008201527f656e7420746f6b656e0000000000000000000000000000000000000000000000602082015250565b6000612ec1602983611f5a565b9150612ecc82612e65565b604082019050919050565b60006020820190508181036000830152612ef081612eb4565b9050919050565b7f4552433732313a2062616c616e636520717565727920666f7220746865207a6560008201527f726f206164647265737300000000000000000000000000000000000000000000602082015250565b6000612f53602a83611f5a565b9150612f5e82612ef7565b604082019050919050565b60006020820190508181036000830152612f8281612f46565b9050919050565b7f222c20226465736372697074696f6e223a2022416e2065706963204e4654222c60008201527f2022696d616765223a2022697066733a2f2f0000000000000000000000000000602082015250565b6000612fe5603283612798565b9150612ff082612f89565b603282019050919050565b6000613006826127cc565b91506130128286612804565b915061301d826128b0565b915061302982856128d3565b915061303482612fd8565b91506130408284612804565b915061304b82612a83565b9150819050949350505050565b60006020601f8301049050919050565b600082821b905092915050565b6000600883026130a57fffffffffffffffffffffffffffffffffffffffffffffffffffffffffffffffff82613068565b6130af8683613068565b95508019841693508086168417925050509392505050565b6000819050919050565b60006130ec6130e76130e284612001565b6130c7565b612001565b9050919050565b6000819050919050565b613106836130d1565b61311a613112826130f3565b848454613075565b825550505050565b600090565b61312f613122565b61313a8184846130fd565b505050565b5b8181101561315e57613153600082613127565b600181019050613140565b5050565b601f8211156131a357613174816127ef565b61317d84613058565b8101602085101561318c578190505b6131a061319885613058565b83018261313f565b50505b505050565b600082821c905092915050565b60006131c6600019846008026131a8565b1980831691505092915050565b60006131df83836131b5565b9150826002028217905092915050565b6131f882611f4f565b67ffffffffffffffff8111156132115761321061224c565b5b61321b8254612582565b613226828285613162565b600060209050601f8311600181146132595760008415613247578287015190505b61325185826131d3565b8655506132b9565b601f198416613267866127ef565b60005b8281101561328f5784890151825560018201915060208501945060208101905061326a565b868310156132ac57848901516132a8601f8916826131b5565b8355505b6001600288020188555050505b505050505050565b7f4e487b7100000000000000000000000000000000000000000000000000000000600052601260045260246000fd5b60006132fb82612001565b915061330683612001565b925082613316576133156132c1565b5b828204905092915050565b600061332c82612001565b915061333783612001565b925082613347576133466132c1565b5b828206905092915050565b600061335d82612001565b915061336883612001565b925082820261337681612001565b9150828204841483151761338d5761338c612b4b565b5b5092915050565b7f4552433732313a206f70657261746f7220717565727920666f72206e6f6e657860008201527f697374656e7420746f6b656e0000000000000000000000000000000000000000602082015250565b60006133f0602c83611f5a565b91506133fb82613394565b604082019050919050565b6000602082019050818103600083015261341f816133e3565b9050919050565b7f4552433732313a207472616e73666572206f6620746f6b656e2074686174206960008201527f73206e6f74206f776e0000000000000000000000000000000000000000000000602082015250565b6000613482602983611f5a565b915061348d82613426565b604082019050919050565b600060208201905081810360008301526134b181613475565b9050919050565b7f4552433732313a207472616e7366657220746f20746865207a65726f2061646460008201527f7265737300000000000000000000000000000000000000000000000000000000602082015250565b6000613514602483611f5a565b915061351f826134b8565b604082019050919050565b6000602082019050818103600083015261354381613507565b9050919050565b600060408201905081810360008301526135648185611fa6565b905081810360208301526135788184611fa6565b90509392505050565b7f4552433732313a20617070726f766520746f2063616c6c657200000000000000600082015250565b60006135b7601983611f5a565b91506135c282613581565b602082019050919050565b600060208201905081810360008301526135e6816135aa565b9050919050565b7f4552433732313a207472616e7366657220746f206e6f6e20455243373231526560008201527f63656976657220696d706c656d656e7465720000000000000000000000000000602082015250565b6000613649603283611f5a565b9150613654826135ed565b604082019050919050565b600060208201905081810360008301526136788161363c565b9050919050565b600060608201905081810360008301526136998186611fa6565b90506136a860208301856121ac565b6136b56040830184612096565b949350505050565b600081519050919050565b600082825260208201905092915050565b60006136e4826136bd565b6136ee81856136c8565b93506136fe818560208601611f6b565b61370781611f95565b840191505092915050565b60006080820190506137276000830187612096565b6137346020830186612096565b61374160408301856121ac565b818103606083015261375381846136d9565b905095945050505050565b60008151905061376d81611ec0565b92915050565b60006020828403121561378957613788611e8a565b5b60006137978482850161375e565b91505092915050565b7f4552433732313a206d696e7420746f20746865207a65726f2061646472657373600082015250565b60006137d6602083611f5a565b91506137e1826137a0565b602082019050919050565b60006020820190508181036000830152613805816137c9565b9050919050565b7f4552433732313a20746f6b656e20616c7265616479206d696e74656400000000600082015250565b6000613842601c83611f5a565b915061384d8261380c565b602082019050919050565b6000602082019050818103600083015261387181613835565b905091905056fe416e204e465420772f20494420257320686173206265656e206d696e74656420746f2025734142434445464748494a4b4c4d4e4f505152535455565758595a6162636465666768696a6b6c6d6e6f707172737475767778797a303132333435363738392b2f576562334e6674735b5f746f6b656e49645d2e6e756d6265724f664c696b65203a20a2646970667358221220364fab8aa6eeaeea3593a3fc1c1c3380449c0b70fa0eb689bb93090836167f3064736f6c63430008110033",
  "linkReferences": {},
  "deployedLinkReferences": {}
}